{
  "_format": "hh-sol-artifact-1",
  "contractName": "WavePortal",
  "sourceName": "contracts/WavePortal.sol",
  "abi": [
    {
      "inputs": [],
      "stateMutability": "payable",
      "type": "constructor"
    },
    {
      "anonymous": false,
      "inputs": [
        {
          "indexed": true,
          "internalType": "address",
          "name": "from",
          "type": "address"
        },
        {
          "indexed": false,
          "internalType": "uint256",
          "name": "timestamp",
          "type": "uint256"
        },
        {
          "indexed": false,
          "internalType": "string",
          "name": "message",
          "type": "string"
        }
      ],
      "name": "NewWave",
      "type": "event"
    },
    {
      "inputs": [],
      "name": "getAllWaves",
      "outputs": [
        {
          "components": [
            {
              "internalType": "address",
              "name": "waver",
              "type": "address"
            },
            {
              "internalType": "string",
              "name": "message",
              "type": "string"
            },
            {
              "internalType": "uint256",
              "name": "timestamp",
              "type": "uint256"
            }
          ],
          "internalType": "struct WavePortal.Wave[]",
          "name": "",
          "type": "tuple[]"
        }
      ],
      "stateMutability": "view",
      "type": "function"
    },
    {
      "inputs": [],
      "name": "getTotalWaves",
      "outputs": [
        {
          "internalType": "uint256",
          "name": "",
          "type": "uint256"
        }
      ],
      "stateMutability": "view",
      "type": "function"
    },
    {
      "inputs": [
        {
          "internalType": "address",
          "name": "",
          "type": "address"
        }
      ],
      "name": "lastWavedAt",
      "outputs": [
        {
          "internalType": "uint256",
          "name": "",
          "type": "uint256"
        }
      ],
      "stateMutability": "view",
      "type": "function"
    },
    {
      "inputs": [
        {
          "internalType": "string",
          "name": "",
          "type": "string"
        }
      ],
      "name": "popularity",
      "outputs": [
        {
          "internalType": "uint256",
          "name": "",
          "type": "uint256"
        }
      ],
      "stateMutability": "view",
      "type": "function"
    },
    {
      "inputs": [
        {
          "internalType": "string",
          "name": "_message",
          "type": "string"
        }
      ],
      "name": "wave",
      "outputs": [],
      "stateMutability": "nonpayable",
      "type": "function"
    }
  ],
  "bytecode": "0x60806040526200004f6040518060400160405280600c81526020017f436f6e73747275637465642e00000000000000000000000000000000000000008152506200007760201b620006f11760201c565b606444426200005f9190620001c4565b6200006b919062000261565b60028190555062000308565b62000117816040516024016200008e919062000184565b6040516020818303038152906040527f41304fac000000000000000000000000000000000000000000000000000000007bffffffffffffffffffffffffffffffffffffffffffffffffffffffff19166020820180517bffffffffffffffffffffffffffffffffffffffffffffffffffffffff83818316178352505050506200011a60201b60201c565b50565b60008151905060006a636f6e736f6c652e6c6f679050602083016000808483855afa5050505050565b60006200015082620001a8565b6200015c8185620001b3565b93506200016e8185602086016200022b565b6200017981620002f7565b840191505092915050565b60006020820190508181036000830152620001a0818462000143565b905092915050565b600081519050919050565b600082825260208201905092915050565b6000620001d18262000221565b9150620001de8362000221565b9250827fffffffffffffffffffffffffffffffffffffffffffffffffffffffffffffffff0382111562000216576200021562000299565b5b828201905092915050565b6000819050919050565b60005b838110156200024b5780820151818401526020810190506200022e565b838111156200025b576000848401525b50505050565b60006200026e8262000221565b91506200027b8362000221565b9250826200028e576200028d620002c8565b5b828206905092915050565b7f4e487b7100000000000000000000000000000000000000000000000000000000600052601160045260246000fd5b7f4e487b7100000000000000000000000000000000000000000000000000000000600052601260045260246000fd5b6000601f19601f8301169050919050565b61128d80620003186000396000f3fe608060405234801561001057600080fd5b50600436106100575760003560e01c8063449d46c01461005c57806395d0c3a2146100785780639a2cdc08146100a8578063a42a4663146100c6578063bd43a908146100f6575b600080fd5b61007660048036038101906100719190610ad3565b610114565b005b610092600480360381019061008d9190610ad3565b61050f565b60405161009f9190610f1f565b60405180910390f35b6100b061053d565b6040516100bd9190610f1f565b60405180910390f35b6100e060048036038101906100db9190610aaa565b610588565b6040516100ed9190610f1f565b60405180910390f35b6100fe6105a0565b60405161010b9190610dd6565b60405180910390f35b42601e600460003373ffffffffffffffffffffffffffffffffffffffff1673ffffffffffffffffffffffffffffffffffffffff16815260200190815260200160002054610161919061103c565b106101a1576040517f08c379a000000000000000000000000000000000000000000000000000000000815260040161019890610eff565b60405180910390fd5b42600460003373ffffffffffffffffffffffffffffffffffffffff1673ffffffffffffffffffffffffffffffffffffffff1681526020019081526020016000208190555060016000808282546101f7919061103c565b9250508190555061023e6040518060400160405280601681526020017f257320776176656420772f206d65737361676520257300000000000000000000815250338361078a565b600360405180606001604052803373ffffffffffffffffffffffffffffffffffffffff16815260200183815260200142815250908060018154018082558091505060019003906000526020600020906003020160009091909190915060008201518160000160006101000a81548173ffffffffffffffffffffffffffffffffffffffff021916908373ffffffffffffffffffffffffffffffffffffffff16021790555060208201518160010190805190602001906102fd92919061098a565b506040820151816002015550506064600254424461031b919061103c565b610325919061103c565b61032f9190611142565b6002819055506103766040518060400160405280601681526020017f52616e646f6d20232067656e6572617465643a20256400000000000000000000815250600254610829565b6032600254116104bc576103bf6040518060400160405280600781526020017f257320776f6e2100000000000000000000000000000000000000000000000000815250336108c5565b6000655af3107a400090504781111561040d576040517f08c379a000000000000000000000000000000000000000000000000000000000815260040161040490610ebf565b60405180910390fd5b60003373ffffffffffffffffffffffffffffffffffffffff168260405161043390610dc1565b60006040518083038185875af1925050503d8060008114610470576040519150601f19603f3d011682016040523d82523d6000602084013e610475565b606091505b50509050806104b9576040517f08c379a00000000000000000000000000000000000000000000000000000000081526004016104b090610edf565b60405180910390fd5b50505b3373ffffffffffffffffffffffffffffffffffffffff167f5f7e16dc676677766a70e9c5628aa6c54ddb8b6e5188e2ae1e1f17f1ffbea7164283604051610504929190610f3a565b60405180910390a250565b6001818051602081018201805184825260208301602085012081835280955050505050506000915090505481565b60006105806040518060400160405280601781526020017f5765206861766520256420746f74616c20776176657321000000000000000000815250600054610829565b600054905090565b60046020528060005260406000206000915090505481565b60606003805480602002602001604051908101604052809291908181526020016000905b828210156106e857838290600052602060002090600302016040518060600160405290816000820160009054906101000a900473ffffffffffffffffffffffffffffffffffffffff1673ffffffffffffffffffffffffffffffffffffffff1673ffffffffffffffffffffffffffffffffffffffff16815260200160018201805461064d90611110565b80601f016020809104026020016040519081016040528092919081815260200182805461067990611110565b80156106c65780601f1061069b576101008083540402835291602001916106c6565b820191906000526020600020905b8154815290600101906020018083116106a957829003601f168201915b50505050508152602001600282015481525050815260200190600101906105c4565b50505050905090565b610787816040516024016107059190610df8565b6040516020818303038152906040527f41304fac000000000000000000000000000000000000000000000000000000007bffffffffffffffffffffffffffffffffffffffffffffffffffffffff19166020820180517bffffffffffffffffffffffffffffffffffffffffffffffffffffffff8381831617835250505050610961565b50565b6108248383836040516024016107a293929190610e4a565b6040516020818303038152906040527fe0e9ad4f000000000000000000000000000000000000000000000000000000007bffffffffffffffffffffffffffffffffffffffffffffffffffffffff19166020820180517bffffffffffffffffffffffffffffffffffffffffffffffffffffffff8381831617835250505050610961565b505050565b6108c1828260405160240161083f929190610e8f565b6040516020818303038152906040527f9710a9d0000000000000000000000000000000000000000000000000000000007bffffffffffffffffffffffffffffffffffffffffffffffffffffffff19166020820180517bffffffffffffffffffffffffffffffffffffffffffffffffffffffff8381831617835250505050610961565b5050565b61095d82826040516024016108db929190610e1a565b6040516020818303038152906040527f319af333000000000000000000000000000000000000000000000000000000007bffffffffffffffffffffffffffffffffffffffffffffffffffffffff19166020820180517bffffffffffffffffffffffffffffffffffffffffffffffffffffffff8381831617835250505050610961565b5050565b60008151905060006a636f6e736f6c652e6c6f679050602083016000808483855afa5050505050565b82805461099690611110565b90600052602060002090601f0160209004810192826109b857600085556109ff565b82601f106109d157805160ff19168380011785556109ff565b828001600101855582156109ff579182015b828111156109fe5782518255916020019190600101906109e3565b5b509050610a0c9190610a10565b5090565b5b80821115610a29576000816000905550600101610a11565b5090565b6000610a40610a3b84610f9b565b610f6a565b905082815260208101848484011115610a5857600080fd5b610a638482856110ce565b509392505050565b600081359050610a7a81611240565b92915050565b600082601f830112610a9157600080fd5b8135610aa1848260208601610a2d565b91505092915050565b600060208284031215610abc57600080fd5b6000610aca84828501610a6b565b91505092915050565b600060208284031215610ae557600080fd5b600082013567ffffffffffffffff811115610aff57600080fd5b610b0b84828501610a80565b91505092915050565b6000610b208383610d53565b905092915050565b610b3181611092565b82525050565b610b4081611092565b82525050565b6000610b5182610fdb565b610b5b8185610ffe565b935083602082028501610b6d85610fcb565b8060005b85811015610ba95784840389528151610b8a8582610b14565b9450610b9583610ff1565b925060208a01995050600181019050610b71565b50829750879550505050505092915050565b6000610bc682610fe6565b610bd0818561101a565b9350610be08185602086016110dd565b610be98161122f565b840191505092915050565b6000610bff82610fe6565b610c09818561102b565b9350610c198185602086016110dd565b610c228161122f565b840191505092915050565b6000610c3a60348361102b565b91507f547279696e6720746f207769746864726177206d6f7265206d6f6e657920746860008301527f616e2074686520636f6e7472616374206861732e0000000000000000000000006020830152604082019050919050565b6000610ca060278361102b565b91507f4661696c656420746f207769746864726177206d6f6e65792066726f6d20636f60008301527f6e74726163742e000000000000000000000000000000000000000000000000006020830152604082019050919050565b6000610d0660008361100f565b9150600082019050919050565b6000610d2060088361102b565b91507f576169742031356d0000000000000000000000000000000000000000000000006000830152602082019050919050565b6000606083016000830151610d6b6000860182610b28565b5060208301518482036020860152610d838282610bbb565b9150506040830151610d986040860182610da3565b508091505092915050565b610dac816110c4565b82525050565b610dbb816110c4565b82525050565b6000610dcc82610cf9565b9150819050919050565b60006020820190508181036000830152610df08184610b46565b905092915050565b60006020820190508181036000830152610e128184610bf4565b905092915050565b60006040820190508181036000830152610e348185610bf4565b9050610e436020830184610b37565b9392505050565b60006060820190508181036000830152610e648186610bf4565b9050610e736020830185610b37565b8181036040830152610e858184610bf4565b9050949350505050565b60006040820190508181036000830152610ea98185610bf4565b9050610eb86020830184610db2565b9392505050565b60006020820190508181036000830152610ed881610c2d565b9050919050565b60006020820190508181036000830152610ef881610c93565b9050919050565b60006020820190508181036000830152610f1881610d13565b9050919050565b6000602082019050610f346000830184610db2565b92915050565b6000604082019050610f4f6000830185610db2565b8181036020830152610f618184610bf4565b90509392505050565b6000604051905081810181811067ffffffffffffffff82111715610f9157610f90611200565b5b8060405250919050565b600067ffffffffffffffff821115610fb657610fb5611200565b5b601f19601f8301169050602081019050919050565b6000819050602082019050919050565b600081519050919050565b600081519050919050565b6000602082019050919050565b600082825260208201905092915050565b600081905092915050565b600082825260208201905092915050565b600082825260208201905092915050565b6000611047826110c4565b9150611052836110c4565b9250827fffffffffffffffffffffffffffffffffffffffffffffffffffffffffffffffff0382111561108757611086611173565b5b828201905092915050565b600061109d826110a4565b9050919050565b600073ffffffffffffffffffffffffffffffffffffffff82169050919050565b6000819050919050565b82818337600083830152505050565b60005b838110156110fb5780820151818401526020810190506110e0565b8381111561110a576000848401525b50505050565b6000600282049050600182168061112857607f821691505b6020821081141561113c5761113b6111d1565b5b50919050565b600061114d826110c4565b9150611158836110c4565b925082611168576111676111a2565b5b828206905092915050565b7f4e487b7100000000000000000000000000000000000000000000000000000000600052601160045260246000fd5b7f4e487b7100000000000000000000000000000000000000000000000000000000600052601260045260246000fd5b7f4e487b7100000000000000000000000000000000000000000000000000000000600052602260045260246000fd5b7f4e487b7100000000000000000000000000000000000000000000000000000000600052604160045260246000fd5b6000601f19601f8301169050919050565b61124981611092565b811461125457600080fd5b5056fea264697066735822122077f6213d641181ffbed0787901a8d977dc5ca58da148329c56a850f413595c7d64736f6c63430008000033",
  "linkReferences": {},
  "deployedLinkReferences": {}
}